{
  "_format": "hh-sol-artifact-1",
  "contractName": "LiquidityManager",
  "sourceName": "contracts/LiquidityManager.sol",
  "abi": [
    {
      "inputs": [
        {
          "internalType": "address",
          "name": "_positionManager",
          "type": "address"
        },
        {
          "internalType": "address",
          "name": "_swapRouter",
          "type": "address"
        }
      ],
      "stateMutability": "nonpayable",
      "type": "constructor"
    },
    {
      "anonymous": false,
      "inputs": [
        {
          "indexed": true,
          "internalType": "address",
          "name": "executor",
          "type": "address"
        },
        {
          "indexed": false,
          "internalType": "uint256",
          "name": "commandCount",
          "type": "uint256"
        }
      ],
      "name": "CommandsExecuted",
      "type": "event"
    },
    {
      "anonymous": false,
      "inputs": [
        {
          "indexed": true,
          "internalType": "address",
          "name": "user",
          "type": "address"
        },
        {
          "indexed": false,
          "internalType": "uint256",
          "name": "amount0",
          "type": "uint256"
        },
        {
          "indexed": false,
          "internalType": "uint256",
          "name": "amount1",
          "type": "uint256"
        }
      ],
      "name": "EmergencyWithdraw",
      "type": "event"
    },
    {
      "anonymous": false,
      "inputs": [
        {
          "indexed": true,
          "internalType": "address",
          "name": "previousOwner",
          "type": "address"
        },
        {
          "indexed": true,
          "internalType": "address",
          "name": "newOwner",
          "type": "address"
        }
      ],
      "name": "OwnershipTransferred",
      "type": "event"
    },
    {
      "anonymous": false,
      "inputs": [
        {
          "indexed": true,
          "internalType": "address",
          "name": "user",
          "type": "address"
        },
        {
          "indexed": true,
          "internalType": "uint256",
          "name": "tokenId",
          "type": "uint256"
        }
      ],
      "name": "PositionClosed",
      "type": "event"
    },
    {
      "anonymous": false,
      "inputs": [
        {
          "indexed": true,
          "internalType": "address",
          "name": "user",
          "type": "address"
        },
        {
          "indexed": true,
          "internalType": "uint256",
          "name": "tokenId",
          "type": "uint256"
        },
        {
          "indexed": false,
          "internalType": "address",
          "name": "token0",
          "type": "address"
        },
        {
          "indexed": false,
          "internalType": "address",
          "name": "token1",
          "type": "address"
        },
        {
          "indexed": false,
          "internalType": "uint256",
          "name": "amount0",
          "type": "uint256"
        },
        {
          "indexed": false,
          "internalType": "uint256",
          "name": "amount1",
          "type": "uint256"
        }
      ],
      "name": "PositionCreated",
      "type": "event"
    },
    {
      "anonymous": false,
      "inputs": [
        {
          "indexed": true,
          "internalType": "address",
          "name": "user",
          "type": "address"
        },
        {
          "indexed": false,
          "internalType": "bool",
          "name": "whitelisted",
          "type": "bool"
        }
      ],
      "name": "UserWhitelisted",
      "type": "event"
    },
    {
      "inputs": [
        {
          "internalType": "address[]",
          "name": "users",
          "type": "address[]"
        },
        {
          "internalType": "bool",
          "name": "whitelisted",
          "type": "bool"
        }
      ],
      "name": "batchSetWhitelistStatus",
      "outputs": [],
      "stateMutability": "nonpayable",
      "type": "function"
    },
    {
      "inputs": [
        {
          "internalType": "uint256",
          "name": "tokenId",
          "type": "uint256"
        },
        {
          "internalType": "address",
          "name": "recipient",
          "type": "address"
        },
        {
          "internalType": "uint128",
          "name": "amount0Max",
          "type": "uint128"
        },
        {
          "internalType": "uint128",
          "name": "amount1Max",
          "type": "uint128"
        }
      ],
      "name": "collectFees",
      "outputs": [],
      "stateMutability": "nonpayable",
      "type": "function"
    },
    {
      "inputs": [
        {
          "components": [
            {
              "internalType": "address",
              "name": "token0",
              "type": "address"
            },
            {
              "internalType": "address",
              "name": "token1",
              "type": "address"
            },
            {
              "internalType": "uint24",
              "name": "fee",
              "type": "uint24"
            },
            {
              "internalType": "int24",
              "name": "tickLower",
              "type": "int24"
            },
            {
              "internalType": "int24",
              "name": "tickUpper",
              "type": "int24"
            },
            {
              "internalType": "uint256",
              "name": "amount0Desired",
              "type": "uint256"
            },
            {
              "internalType": "uint256",
              "name": "amount1Desired",
              "type": "uint256"
            },
            {
              "internalType": "uint256",
              "name": "amount0Min",
              "type": "uint256"
            },
            {
              "internalType": "uint256",
              "name": "amount1Min",
              "type": "uint256"
            },
            {
              "internalType": "address",
              "name": "recipient",
              "type": "address"
            },
            {
              "internalType": "uint256",
              "name": "deadline",
              "type": "uint256"
            }
          ],
          "internalType": "struct INonfungiblePositionManager.MintParams",
          "name": "params",
          "type": "tuple"
        }
      ],
      "name": "createPosition",
      "outputs": [
        {
          "internalType": "uint256",
          "name": "tokenId",
          "type": "uint256"
        }
      ],
      "stateMutability": "nonpayable",
      "type": "function"
    },
    {
      "inputs": [
        {
          "internalType": "uint256",
          "name": "tokenId",
          "type": "uint256"
        },
        {
          "internalType": "uint128",
          "name": "liquidity",
          "type": "uint128"
        },
        {
          "internalType": "uint256",
          "name": "amount0Min",
          "type": "uint256"
        },
        {
          "internalType": "uint256",
          "name": "amount1Min",
          "type": "uint256"
        },
        {
          "internalType": "uint256",
          "name": "deadline",
          "type": "uint256"
        }
      ],
      "name": "decreaseLiquidity",
      "outputs": [],
      "stateMutability": "nonpayable",
      "type": "function"
    },
    {
      "inputs": [
        {
          "internalType": "address",
          "name": "token0",
          "type": "address"
        },
        {
          "internalType": "address",
          "name": "token1",
          "type": "address"
        }
      ],
      "name": "emergencyWithdraw",
      "outputs": [],
      "stateMutability": "nonpayable",
      "type": "function"
    },
    {
      "inputs": [
        {
          "internalType": "bytes[]",
          "name": "commands",
          "type": "bytes[]"
        }
      ],
      "name": "executeCommands",
      "outputs": [],
      "stateMutability": "nonpayable",
      "type": "function"
    },
    {
      "inputs": [
        {
          "internalType": "uint256",
          "name": "tokenId",
          "type": "uint256"
        }
      ],
      "name": "getPosition",
      "outputs": [
        {
          "components": [
            {
              "internalType": "uint256",
              "name": "tokenId",
              "type": "uint256"
            },
            {
              "internalType": "address",
              "name": "token0",
              "type": "address"
            },
            {
              "internalType": "address",
              "name": "token1",
              "type": "address"
            },
            {
              "internalType": "uint24",
              "name": "fee",
              "type": "uint24"
            },
            {
              "internalType": "int24",
              "name": "tickLower",
              "type": "int24"
            },
            {
              "internalType": "int24",
              "name": "tickUpper",
              "type": "int24"
            },
            {
              "internalType": "uint256",
              "name": "depositedAmount0",
              "type": "uint256"
            },
            {
              "internalType": "uint256",
              "name": "depositedAmount1",
              "type": "uint256"
            },
            {
              "internalType": "uint256",
              "name": "createdAt",
              "type": "uint256"
            },
            {
              "internalType": "bool",
              "name": "active",
              "type": "bool"
            }
          ],
          "internalType": "struct LiquidityManager.UserPosition",
          "name": "",
          "type": "tuple"
        }
      ],
      "stateMutability": "view",
      "type": "function"
    },
    {
      "inputs": [
        {
          "internalType": "address",
          "name": "user",
          "type": "address"
        }
      ],
      "name": "getUserPositions",
      "outputs": [
        {
          "components": [
            {
              "internalType": "uint256",
              "name": "tokenId",
              "type": "uint256"
            },
            {
              "internalType": "address",
              "name": "token0",
              "type": "address"
            },
            {
              "internalType": "address",
              "name": "token1",
              "type": "address"
            },
            {
              "internalType": "uint24",
              "name": "fee",
              "type": "uint24"
            },
            {
              "internalType": "int24",
              "name": "tickLower",
              "type": "int24"
            },
            {
              "internalType": "int24",
              "name": "tickUpper",
              "type": "int24"
            },
            {
              "internalType": "uint256",
              "name": "depositedAmount0",
              "type": "uint256"
            },
            {
              "internalType": "uint256",
              "name": "depositedAmount1",
              "type": "uint256"
            },
            {
              "internalType": "uint256",
              "name": "createdAt",
              "type": "uint256"
            },
            {
              "internalType": "bool",
              "name": "active",
              "type": "bool"
            }
          ],
          "internalType": "struct LiquidityManager.UserPosition[]",
          "name": "",
          "type": "tuple[]"
        }
      ],
      "stateMutability": "view",
      "type": "function"
    },
    {
      "inputs": [
        {
          "internalType": "uint256",
          "name": "tokenId",
          "type": "uint256"
        },
        {
          "internalType": "uint256",
          "name": "amount0Desired",
          "type": "uint256"
        },
        {
          "internalType": "uint256",
          "name": "amount1Desired",
          "type": "uint256"
        },
        {
          "internalType": "uint256",
          "name": "amount0Min",
          "type": "uint256"
        },
        {
          "internalType": "uint256",
          "name": "amount1Min",
          "type": "uint256"
        },
        {
          "internalType": "uint256",
          "name": "deadline",
          "type": "uint256"
        }
      ],
      "name": "increaseLiquidity",
      "outputs": [],
      "stateMutability": "nonpayable",
      "type": "function"
    },
    {
      "inputs": [
        {
          "internalType": "address",
          "name": "user",
          "type": "address"
        }
      ],
      "name": "isWhitelisted",
      "outputs": [
        {
          "internalType": "bool",
          "name": "",
          "type": "bool"
        }
      ],
      "stateMutability": "view",
      "type": "function"
    },
    {
      "inputs": [],
      "name": "owner",
      "outputs": [
        {
          "internalType": "address",
          "name": "",
          "type": "address"
        }
      ],
      "stateMutability": "view",
      "type": "function"
    },
    {
      "inputs": [],
      "name": "positionManager",
      "outputs": [
        {
          "internalType": "contract INonfungiblePositionManager",
          "name": "",
          "type": "address"
        }
      ],
      "stateMutability": "view",
      "type": "function"
    },
    {
      "inputs": [
        {
          "internalType": "uint256",
          "name": "",
          "type": "uint256"
        }
      ],
      "name": "positionToUser",
      "outputs": [
        {
          "internalType": "address",
          "name": "",
          "type": "address"
        }
      ],
      "stateMutability": "view",
      "type": "function"
    },
    {
      "inputs": [],
      "name": "renounceOwnership",
      "outputs": [],
      "stateMutability": "nonpayable",
      "type": "function"
    },
    {
      "inputs": [
        {
          "internalType": "address",
          "name": "user",
          "type": "address"
        },
        {
          "internalType": "bool",
          "name": "whitelisted",
          "type": "bool"
        }
      ],
      "name": "setWhitelistStatus",
      "outputs": [],
      "stateMutability": "nonpayable",
      "type": "function"
    },
    {
      "inputs": [],
      "name": "swapRouter",
      "outputs": [
        {
          "internalType": "contract ISwapRouter",
          "name": "",
          "type": "address"
        }
      ],
      "stateMutability": "view",
      "type": "function"
    },
    {
      "inputs": [
        {
          "internalType": "address",
          "name": "tokenIn",
          "type": "address"
        },
        {
          "internalType": "address",
          "name": "tokenOut",
          "type": "address"
        },
        {
          "internalType": "uint24",
          "name": "fee",
          "type": "uint24"
        },
        {
          "internalType": "uint256",
          "name": "amountIn",
          "type": "uint256"
        },
        {
          "internalType": "uint256",
          "name": "amountOutMinimum",
          "type": "uint256"
        },
        {
          "internalType": "uint256",
          "name": "deadline",
          "type": "uint256"
        },
        {
          "internalType": "uint160",
          "name": "sqrtPriceLimitX96",
          "type": "uint160"
        }
      ],
      "name": "swapTokens",
      "outputs": [],
      "stateMutability": "nonpayable",
      "type": "function"
    },
    {
      "inputs": [
        {
          "internalType": "address",
          "name": "newOwner",
          "type": "address"
        }
      ],
      "name": "transferOwnership",
      "outputs": [],
      "stateMutability": "nonpayable",
      "type": "function"
    },
    {
      "inputs": [
        {
          "internalType": "address",
          "name": "",
          "type": "address"
        },
        {
          "internalType": "uint256",
          "name": "",
          "type": "uint256"
        }
      ],
      "name": "userPositions",
      "outputs": [
        {
          "internalType": "uint256",
          "name": "tokenId",
          "type": "uint256"
        },
        {
          "internalType": "address",
          "name": "token0",
          "type": "address"
        },
        {
          "internalType": "address",
          "name": "token1",
          "type": "address"
        },
        {
          "internalType": "uint24",
          "name": "fee",
          "type": "uint24"
        },
        {
          "internalType": "int24",
          "name": "tickLower",
          "type": "int24"
        },
        {
          "internalType": "int24",
          "name": "tickUpper",
          "type": "int24"
        },
        {
          "internalType": "uint256",
          "name": "depositedAmount0",
          "type": "uint256"
        },
        {
          "internalType": "uint256",
          "name": "depositedAmount1",
          "type": "uint256"
        },
        {
          "internalType": "uint256",
          "name": "createdAt",
          "type": "uint256"
        },
        {
          "internalType": "bool",
          "name": "active",
          "type": "bool"
        }
      ],
      "stateMutability": "view",
      "type": "function"
    },
    {
      "inputs": [
        {
          "internalType": "address",
          "name": "",
          "type": "address"
        }
      ],
      "name": "whitelistedUsers",
      "outputs": [
        {
          "internalType": "bool",
          "name": "",
          "type": "bool"
        }
      ],
      "stateMutability": "view",
      "type": "function"
    },
    {
      "inputs": [
        {
          "internalType": "uint256",
          "name": "tokenId",
          "type": "uint256"
        }
      ],
      "name": "withdrawPosition",
      "outputs": [],
      "stateMutability": "nonpayable",
      "type": "function"
    },
    {
      "stateMutability": "payable",
      "type": "receive"
    }
  ],
  "bytecode": "0x60c06040523480156200001157600080fd5b5060405162002ca038038062002ca08339810160408190526200003491620000cb565b600160005562000044336200005c565b6001600160a01b039182166080521660a05262000103565b600180546001600160a01b038381166001600160a01b0319831681179093556040519116919082907f8be0079c531659141344cd1fd0a4f28419497f9722a3daafe3b4186f6b6457e090600090a35050565b80516001600160a01b0381168114620000c657600080fd5b919050565b60008060408385031215620000df57600080fd5b620000ea83620000ae565b9150620000fa60208401620000ae565b90509250929050565b60805160a051612b07620001996000396000818161044d01528181611749015261186a0152600081816103db015281816104f601528181610716015281816107ae0152818161089801528181610a7d01528181610b2e01528181610c3701528181610cc501528181610dba0152818161113f015281816111e80152818161126f01528181611c690152611d0b0152612b076000f3fe60806040526004361061012e5760003560e01c80636382d9ad116100ab5780638da5cb5b1161006f5780638da5cb5b146103fd578063b0e5110a1461041b578063c31c9c071461043b578063eb02c3011461046f578063f2fde38b1461049c578063f621cc48146104bc57600080fd5b80636382d9ad14610346578063672566dd14610366578063715018a61461039457806373751ad4146103a9578063791b98bc146103c957600080fd5b80632a6bc2dd116100f25780632a6bc2dd1461020f5780633af32abf1461023c578063525c12ea1461028557806359f3f952146102a55780635e1b4d99146102c557600080fd5b806303a3f2ab1461013a5780630c4242841461015c57806311752a4d1461017c57806312d7b2c41461019c5780631c4fbbab146101bc57600080fd5b3661013557005b600080fd5b34801561014657600080fd5b5061015a6101553660046121e8565b6104ec565b005b34801561016857600080fd5b5061015a610177366004612253565b6105ba565b34801561018857600080fd5b5061015a6101973660046122d8565b610622565b3480156101a857600080fd5b5061015a6101b736600461231a565b6106df565b3480156101c857600080fd5b506101f26101d736600461235d565b6004602052600090815260409020546001600160a01b031681565b6040516001600160a01b0390911681526020015b60405180910390f35b34801561021b57600080fd5b5061022f61022a366004612376565b610912565b6040516102069190612449565b34801561024857600080fd5b50610275610257366004612376565b6001600160a01b031660009081526002602052604090205460ff1690565b6040519015158152602001610206565b34801561029157600080fd5b5061015a6102a036600461235d565b610a0c565b3480156102b157600080fd5b5061015a6102c0366004612498565b610d71565b3480156102d157600080fd5b506102e56102e03660046124eb565b610e39565b604080519a8b526001600160a01b03998a1660208c0152979098169689019690965262ffffff949094166060880152600292830b6080880152910b60a086015260c085015260e0840152610100830152151561012082015261014001610206565b34801561035257600080fd5b5061015a610361366004612517565b610ec7565b34801561037257600080fd5b50610386610381366004612545565b61107b565b604051908152602001610206565b3480156103a057600080fd5b5061015a61162c565b3480156103b557600080fd5b5061015a6103c436600461255e565b611640565b3480156103d557600080fd5b506101f27f000000000000000000000000000000000000000000000000000000000000000081565b34801561040957600080fd5b506001546001600160a01b03166101f2565b34801561042757600080fd5b5061015a6104363660046125c6565b61172a565b34801561044757600080fd5b506101f27f000000000000000000000000000000000000000000000000000000000000000081565b34801561047b57600080fd5b5061048f61048a36600461235d565b6118e4565b6040516102069190612641565b3480156104a857600080fd5b5061015a6104b7366004612376565b611b26565b3480156104c857600080fd5b506102756104d7366004612376565b60026020526000908152604090205460ff1681565b6104f4611b9f565b7f00000000000000000000000000000000000000000000000000000000000000006001600160a01b0316630c49ccbe6040518060a00160405280888152602001876001600160801b03168152602001868152602001858152602001848152506040518263ffffffff1660e01b815260040161056f9190612650565b60408051808303816000875af115801561058d573d6000803e3d6000fd5b505050506040513d601f19601f820116820180604052508101906105b19190612693565b50505050505050565b6105c2611b9f565b6001600160a01b038216600081815260026020908152604091829020805460ff191685151590811790915591519182527f995d2434d36c9bceaab42c56efe51e8ffe41fd11cabefd9e2cb83700d8b2035e91015b60405180910390a25050565b61062a611b9f565b60005b818110156106ac5761069983838381811061064a5761064a6126b7565b905060200281019061065c91906126cd565b8080601f0160208091040260200160405190810160405280939291908181526020018383808284376000920191909152503093925050611bf99050565b50806106a48161272a565b91505061062d565b5060405181815233907f1c6b75850d76c1a3cce70822a7d569e446af643b4313ae0f209efc1c10ff40fe90602001610616565b6106e7611b9f565b60006106f287611c46565b905060006106ff88611ce8565b60405163095ea7b360e01b81526001600160a01b037f000000000000000000000000000000000000000000000000000000000000000081166004830152602482018a90529192509083169063095ea7b3906044016020604051808303816000875af1158015610772573d6000803e3d6000fd5b505050506040513d601f19601f820116820180604052508101906107969190612743565b5060405163095ea7b360e01b81526001600160a01b037f0000000000000000000000000000000000000000000000000000000000000000811660048301526024820188905282169063095ea7b3906044016020604051808303816000875af1158015610806573d6000803e3d6000fd5b505050506040513d601f19601f8201168201806040525081019061082a9190612743565b506040805160c08101825289815260208101898152818301898152606083018981526080840189815260a08501898152955163219f5d1760e01b8152945160048601529251602485015290516044840152516064830152516084820152905160a48201526001600160a01b037f0000000000000000000000000000000000000000000000000000000000000000169063219f5d179060c4016060604051808303816000875af11580156108e1573d6000803e3d6000fd5b505050506040513d601f19601f82011682018060405250810190610905919061276b565b5050505050505050505050565b6001600160a01b0381166000908152600360209081526040808320805482518185028101850190935280835260609492939192909184015b82821015610a01576000848152602090819020604080516101408101825260078602909201805483526001808201546001600160a01b03908116858701526002808401549182169486019490945262ffffff600160a01b8204166060860152600160b81b8104840b6080860152600160d01b900490920b60a0840152600381015460c0840152600481015460e084015260058101546101008401526006015460ff161515610120830152908352909201910161094a565b505050509050919050565b60008181526004602052604090205481906001600160a01b03163314610a6e5760405162461bcd60e51b81526020600482015260126024820152712737ba103837b9b4ba34b7b71037bbb732b960711b60448201526064015b60405180910390fd5b610a76611d8a565b60008060007f00000000000000000000000000000000000000000000000000000000000000006001600160a01b03166399fbab88866040518263ffffffff1660e01b8152600401610ac991815260200190565b61018060405180830381865afa158015610ae7573d6000803e3d6000fd5b505050506040513d601f19601f82011682018060405250810190610b0b91906127d2565b5050505097505050509450945050506000816001600160801b03161115610bfb577f00000000000000000000000000000000000000000000000000000000000000006001600160a01b0316630c49ccbe6040518060a00160405280888152602001846001600160801b0316815260200160008152602001600081526020014261012c610b9791906128b3565b8152506040518263ffffffff1660e01b8152600401610bb69190612650565b60408051808303816000875af1158015610bd4573d6000803e3d6000fd5b505050506040513d601f19601f82011682018060405250810190610bf89190612693565b50505b604080516080810182528681523360208201526001600160801b038183018190526060820152905163fc6f786560e01b81526001600160a01b037f0000000000000000000000000000000000000000000000000000000000000000169163fc6f786591610c6b91906004016128c6565b60408051808303816000875af1158015610c89573d6000803e3d6000fd5b505050506040513d601f19601f82011682018060405250810190610cad9190612693565b5050604051630852cd8d60e31b8152600481018690527f00000000000000000000000000000000000000000000000000000000000000006001600160a01b0316906342966c6890602401600060405180830381600087803b158015610d1157600080fd5b505af1158015610d25573d6000803e3d6000fd5b50505050610d333386611de3565b604051859033907fa9e0cdf27a7965d21573ebb808fbcb2c2a1cfd656e1ecf3f82549437b474067790600090a3505050610d6d6001600055565b5050565b610d79611b9f565b604080516080810182528581526001600160a01b0385811660208301526001600160801b038581168385015284166060830152915163fc6f786560e01b81527f00000000000000000000000000000000000000000000000000000000000000009092169163fc6f786591610def916004016128c6565b60408051808303816000875af1158015610e0d573d6000803e3d6000fd5b505050506040513d601f19601f82011682018060405250810190610e319190612693565b505050505050565b60036020528160005260406000208181548110610e5557600080fd5b60009182526020909120600790910201805460018201546002808401546003850154600486015460058701546006909701549598506001600160a01b0394851697509382169562ffffff600160a01b84041695600160b81b8404850b95600160d01b90940490940b9391929160ff168a565b3360009081526002602052604090205460ff16610f1d5760405162461bcd60e51b8152602060048201526014602482015273155cd95c881b9bdd081dda1a5d195b1a5cdd195960621b6044820152606401610a65565b610f25611d8a565b6040516370a0823160e01b81523060048201526000906001600160a01b038416906370a0823190602401602060405180830381865afa158015610f6c573d6000803e3d6000fd5b505050506040513d601f19601f82011682018060405250810190610f909190612909565b6040516370a0823160e01b81523060048201529091506000906001600160a01b038416906370a0823190602401602060405180830381865afa158015610fda573d6000803e3d6000fd5b505050506040513d601f19601f82011682018060405250810190610ffe9190612909565b9050811561101a5761101a6001600160a01b0385163384611e7d565b8015611034576110346001600160a01b0384163383611e7d565b604080518381526020810183905233917fbb757047c2b5f3974fe26b7c10f732e7bce710b0952a71082702781e62ae0595910160405180910390a25050610d6d6001600055565b3360009081526002602052604081205460ff166110d15760405162461bcd60e51b8152602060048201526014602482015273155cd95c881b9bdd081dda1a5d195b1a5cdd195960621b6044820152606401610a65565b6110d9611d8a565b611101333060a08501356110f06020870187612376565b6001600160a01b0316929190611ee5565b61111b333060c08501356110f06040870160208801612376565b6111286020830183612376565b60405163095ea7b360e01b81526001600160a01b037f00000000000000000000000000000000000000000000000000000000000000008116600483015260a08501356024830152919091169063095ea7b3906044016020604051808303816000875af115801561119c573d6000803e3d6000fd5b505050506040513d601f19601f820116820180604052508101906111c09190612743565b506111d16040830160208401612376565b60405163095ea7b360e01b81526001600160a01b037f00000000000000000000000000000000000000000000000000000000000000008116600483015260c08501356024830152919091169063095ea7b3906044016020604051808303816000875af1158015611245573d6000803e3d6000fd5b505050506040513d601f19601f820116820180604052508101906112699190612743565b506000807f00000000000000000000000000000000000000000000000000000000000000006001600160a01b031663883164566040518061016001604052808760000160208101906112bb9190612376565b6001600160a01b031681526020018760200160208101906112dc9190612376565b6001600160a01b031681526020016112fa6060890160408a01612922565b62ffffff1681526020016113146080890160608a0161293f565b60020b815260200161132c60a0890160808a0161293f565b60020b81526020018760a0013581526020018760c0013581526020018760e0013581526020018761010001358152602001306001600160a01b031681526020018761014001358152506040518263ffffffff1660e01b8152600401611391919061295c565b6080604051808303816000875af11580156113b0573d6000803e3d6000fd5b505050506040513d601f19601f820116820180604052508101906113d49190612a20565b336000908152600360209081526040918290208251610140810190935286835295985092965090945091508181019061140f90880188612376565b6001600160a01b031681526020018660200160208101906114309190612376565b6001600160a01b0316815260200161144e6060880160408901612922565b62ffffff168152602001611468608088016060890161293f565b60020b815260200161148060a088016080890161293f565b600290810b825260208083018790526040808401879052426060808601919091526001608095860181905287548082018955600098895284892088516007909202019081558785015191810180546001600160a01b03199081166001600160a01b0394851617909155888501519682018054948a0151988a015160a08b0151989094166001600160b81b031990951694909417600160a01b62ffffff998a16021765ffffffffffff60b81b1916600160b81b9389169390930262ffffff60d01b191692909217600160d01b979096169690960294909417905560c0850151600385015560e08501516004808601919091556101008601516005860155610120909501516006909401805460ff19169415159490941790935587855292835292208054339316831790558491907f8636d7f8ea16ffd8f5d064ca55a37a618b5c8825ca750e7e6e155e94464e6312906115da90880188612376565b6115ea6040890160208a01612376565b604080516001600160a01b03938416815292909116602083015281018690526060810185905260800160405180910390a350506116276001600055565b919050565b611634611b9f565b61163e6000611f1d565b565b611648611b9f565b60005b8281101561172457816002600086868581811061166a5761166a6126b7565b905060200201602081019061167f9190612376565b6001600160a01b031681526020810191909152604001600020805460ff19169115159190911790558383828181106116b9576116b96126b7565b90506020020160208101906116ce9190612376565b6001600160a01b03167f995d2434d36c9bceaab42c56efe51e8ffe41fd11cabefd9e2cb83700d8b2035e8360405161170a911515815260200190565b60405180910390a28061171c8161272a565b91505061164b565b50505050565b611732611b9f565b60405163095ea7b360e01b81526001600160a01b037f0000000000000000000000000000000000000000000000000000000000000000811660048301526024820186905288169063095ea7b3906044016020604051808303816000875af11580156117a1573d6000803e3d6000fd5b505050506040513d601f19601f820116820180604052508101906117c59190612743565b5060408051610100810182526001600160a01b0389811682528881166020830190815262ffffff89811684860190815230606086019081526080860189815260a087018c815260c088018c81528a881660e08a01908152995163414bf38960e01b81529851881660048a0152955187166024890152925190931660448701525184166064860152905160848501525160a48401525160c48301529151821660e48201527f00000000000000000000000000000000000000000000000000000000000000009091169063414bf38990610104016020604051808303816000875af11580156118b6573d6000803e3d6000fd5b505050506040513d601f19601f820116820180604052508101906118da9190612909565b5050505050505050565b6040805161014081018252600080825260208201819052918101829052606081018290526080810182905260a0810182905260c0810182905260e0810182905261010081018290526101208101919091526000828152600460205260409020546001600160a01b03168061198f5760405162461bcd60e51b8152602060048201526012602482015271141bdcda5d1a5bdb881b9bdd08199bdd5b9960721b6044820152606401610a65565b6001600160a01b038116600090815260036020908152604080832080548251818502810185019093528083529192909190849084015b82821015611a7c576000848152602090819020604080516101408101825260078602909201805483526001808201546001600160a01b03908116858701526002808401549182169486019490945262ffffff600160a01b8204166060860152600160b81b8104840b6080860152600160d01b900490920b60a0840152600381015460c0840152600481015460e084015260058101546101008401526006015460ff16151561012083015290835290920191016119c5565b50505050905060005b8151811015611ae85784828281518110611aa157611aa16126b7565b60200260200101516000015103611ad657818181518110611ac457611ac46126b7565b60200260200101519350505050919050565b80611ae08161272a565b915050611a85565b5060405162461bcd60e51b8152602060048201526012602482015271141bdcda5d1a5bdb881b9bdd08199bdd5b9960721b6044820152606401610a65565b611b2e611b9f565b6001600160a01b038116611b935760405162461bcd60e51b815260206004820152602660248201527f4f776e61626c653a206e6577206f776e657220697320746865207a65726f206160448201526564647265737360d01b6064820152608401610a65565b611b9c81611f1d565b50565b6001546001600160a01b0316331461163e5760405162461bcd60e51b815260206004820181905260248201527f4f776e61626c653a2063616c6c6572206973206e6f7420746865206f776e65726044820152606401610a65565b6060611c3d838360006040518060400160405280601e81526020017f416464726573733a206c6f772d6c6576656c2063616c6c206661696c65640000815250611f6f565b90505b92915050565b60405163133f757160e31b81526004810182905260009081906001600160a01b037f000000000000000000000000000000000000000000000000000000000000000016906399fbab889060240161018060405180830381865afa158015611cb1573d6000803e3d6000fd5b505050506040513d601f19601f82011682018060405250810190611cd591906127d2565b50979d9c50505050505050505050505050565b60405163133f757160e31b81526004810182905260009081906001600160a01b037f000000000000000000000000000000000000000000000000000000000000000016906399fbab889060240161018060405180830381865afa158015611d53573d6000803e3d6000fd5b505050506040513d601f19601f82011682018060405250810190611d7791906127d2565b50969d9c50505050505050505050505050565b600260005403611ddc5760405162461bcd60e51b815260206004820152601f60248201527f5265656e7472616e637947756172643a207265656e7472616e742063616c6c006044820152606401610a65565b6002600055565b6001600160a01b0382166000908152600360205260408120905b81548110156117245782828281548110611e1957611e196126b7565b90600052602060002090600702016000015403611e6b576000828281548110611e4457611e446126b7565b60009182526020909120600790910201600601805460ff1916911515919091179055611724565b80611e758161272a565b915050611dfd565b6040516001600160a01b038316602482015260448101829052611ee090849063a9059cbb60e01b906064015b60408051601f198184030181529190526020810180516001600160e01b03166001600160e01b03199093169290921790915261204c565b505050565b6040516001600160a01b03808516602483015283166044820152606481018290526117249085906323b872dd60e01b90608401611ea9565b600180546001600160a01b038381166001600160a01b0319831681179093556040519116919082907f8be0079c531659141344cd1fd0a4f28419497f9722a3daafe3b4186f6b6457e090600090a35050565b606082471015611fd05760405162461bcd60e51b815260206004820152602660248201527f416464726573733a20696e73756666696369656e742062616c616e636520666f6044820152651c8818d85b1b60d21b6064820152608401610a65565b600080866001600160a01b03168587604051611fec9190612a82565b60006040518083038185875af1925050503d8060008114612029576040519150601f19603f3d011682016040523d82523d6000602084013e61202e565b606091505b509150915061203f87838387612121565b925050505b949350505050565b60006120a1826040518060400160405280602081526020017f5361666545524332303a206c6f772d6c6576656c2063616c6c206661696c6564815250856001600160a01b031661219a9092919063ffffffff16565b90508051600014806120c25750808060200190518101906120c29190612743565b611ee05760405162461bcd60e51b815260206004820152602a60248201527f5361666545524332303a204552433230206f7065726174696f6e20646964206e6044820152691bdd081cdd58d8d9595960b21b6064820152608401610a65565b60608315612190578251600003612189576001600160a01b0385163b6121895760405162461bcd60e51b815260206004820152601d60248201527f416464726573733a2063616c6c20746f206e6f6e2d636f6e74726163740000006044820152606401610a65565b5081612044565b61204483836121a9565b60606120448484600085611f6f565b8151156121b95781518083602001fd5b8060405162461bcd60e51b8152600401610a659190612a9e565b6001600160801b0381168114611b9c57600080fd5b600080600080600060a0868803121561220057600080fd5b853594506020860135612212816121d3565b94979496505050506040830135926060810135926080909101359150565b6001600160a01b0381168114611b9c57600080fd5b8015158114611b9c57600080fd5b6000806040838503121561226657600080fd5b823561227181612230565b9150602083013561228181612245565b809150509250929050565b60008083601f84011261229e57600080fd5b50813567ffffffffffffffff8111156122b657600080fd5b6020830191508360208260051b85010111156122d157600080fd5b9250929050565b600080602083850312156122eb57600080fd5b823567ffffffffffffffff81111561230257600080fd5b61230e8582860161228c565b90969095509350505050565b60008060008060008060c0878903121561233357600080fd5b505084359660208601359650604086013595606081013595506080810135945060a0013592509050565b60006020828403121561236f57600080fd5b5035919050565b60006020828403121561238857600080fd5b813561239381612230565b9392505050565b8051825260208101516123b860208401826001600160a01b03169052565b5060408101516123d360408401826001600160a01b03169052565b5060608101516123ea606084018262ffffff169052565b5060808101516123ff608084018260020b9052565b5060a081015161241460a084018260020b9052565b5060c081015160c083015260e081015160e0830152610100808201518184015250610120808201516117248285018215159052565b6020808252825182820181905260009190848201906040850190845b8181101561248c5761247883855161239a565b928401926101409290920191600101612465565b50909695505050505050565b600080600080608085870312156124ae57600080fd5b8435935060208501356124c081612230565b925060408501356124d0816121d3565b915060608501356124e0816121d3565b939692955090935050565b600080604083850312156124fe57600080fd5b823561250981612230565b946020939093013593505050565b6000806040838503121561252a57600080fd5b823561253581612230565b9150602083013561228181612230565b6000610160828403121561255857600080fd5b50919050565b60008060006040848603121561257357600080fd5b833567ffffffffffffffff81111561258a57600080fd5b6125968682870161228c565b90945092505060208401356125aa81612245565b809150509250925092565b62ffffff81168114611b9c57600080fd5b600080600080600080600060e0888a0312156125e157600080fd5b87356125ec81612230565b965060208801356125fc81612230565b9550604088013561260c816125b5565b9450606088013593506080880135925060a0880135915060c088013561263181612230565b8091505092959891949750929550565b6101408101611c40828461239a565b600060a082019050825182526001600160801b03602084015116602083015260408301516040830152606083015160608301526080830151608083015292915050565b600080604083850312156126a657600080fd5b505080516020909101519092909150565b634e487b7160e01b600052603260045260246000fd5b6000808335601e198436030181126126e457600080fd5b83018035915067ffffffffffffffff8211156126ff57600080fd5b6020019150368190038213156122d157600080fd5b634e487b7160e01b600052601160045260246000fd5b60006001820161273c5761273c612714565b5060010190565b60006020828403121561275557600080fd5b815161239381612245565b8051611627816121d3565b60008060006060848603121561278057600080fd5b835161278b816121d3565b602085015160409095015190969495509392505050565b805161162781612230565b8051611627816125b5565b8060020b8114611b9c57600080fd5b8051611627816127b8565b6000806000806000806000806000806000806101808d8f0312156127f557600080fd5b8c516bffffffffffffffffffffffff8116811461281157600080fd5b9b5061281f60208e016127a2565b9a5061282d60408e016127a2565b995061283b60608e016127a2565b985061284960808e016127ad565b975061285760a08e016127c7565b965061286560c08e016127c7565b955061287360e08e01612760565b94506101008d015193506101208d015192506128926101408e01612760565b91506128a16101608e01612760565b90509295989b509295989b509295989b565b80820180821115611c4057611c40612714565b815181526020808301516001600160a01b0316908201526040808301516001600160801b0390811691830191909152606092830151169181019190915260800190565b60006020828403121561291b57600080fd5b5051919050565b60006020828403121561293457600080fd5b8135612393816125b5565b60006020828403121561295157600080fd5b8135612393816127b8565b81516001600160a01b031681526101608101602083015161298860208401826001600160a01b03169052565b50604083015161299f604084018262ffffff169052565b5060608301516129b4606084018260020b9052565b5060808301516129c9608084018260020b9052565b5060a083015160a083015260c083015160c083015260e083015160e083015261010080840151818401525061012080840151612a0f828501826001600160a01b03169052565b505061014092830151919092015290565b60008060008060808587031215612a3657600080fd5b845193506020850151612a48816121d3565b6040860151606090960151949790965092505050565b60005b83811015612a79578181015183820152602001612a61565b50506000910152565b60008251612a94818460208701612a5e565b9190910192915050565b6020815260008251806020840152612abd816040850160208701612a5e565b601f01601f1916919091016040019291505056fea26469706673582212204a4f038fdac7a46f2f086de5372d9b294054ad62edc38554f4050e34676ff3ca64736f6c63430008130033",
  "linkReferences": {},
  "deployedLinkReferences": {}
}